{"contracts/ChainOverflowVault.sol":{"ChainOverflowVault":{"abi":[{"inputs":[],"stateMutability":"nonpayable","type":"constructor"},{"anonymous":false,"inputs":[{"indexed":true,"internalType":"string","name":"questionId","type":"string"},{"indexed":true,"internalType":"address","name":"winner","type":"address"},{"indexed":false,"internalType":"uint256","name":"amount","type":"uint256"}],"name":"BountyReleased","type":"event"},{"anonymous":false,"inputs":[{"indexed":true,"internalType":"address","name":"payer","type":"address"},{"indexed":false,"internalType":"string","name":"resourceId","type":"string"},{"indexed":false,"internalType":"uint256","name":"amount","type":"uint256"}],"name":"PaymentReceived","type":"event"},{"inputs":[{"internalType":"string","name":"","type":"string"}],"name":"bounties","outputs":[{"internalType":"uint256","name":"amount","type":"uint256"},{"internalType":"address","name":"asker","type":"address"},{"internalType":"bool","name":"released","type":"bool"}],"stateMutability":"view","type":"function"},{"inputs":[],"name":"owner","outputs":[{"internalType":"address","name":"","type":"address"}],"stateMutability":"view","type":"function"},{"inputs":[{"internalType":"string","name":"resourceId","type":"string"}],"name":"payFee","outputs":[],"stateMutability":"payable","type":"function"},{"inputs":[{"internalType":"string","name":"questionId","type":"string"}],"name":"payForQuestion","outputs":[],"stateMutability":"payable","type":"function"},{"inputs":[],"name":"protocolFee","outputs":[{"internalType":"uint256","name":"","type":"uint256"}],"stateMutability":"view","type":"function"},{"inputs":[{"internalType":"string","name":"questionId","type":"string"},{"internalType":"address payable","name":"winner","type":"address"}],"name":"releaseBounty","outputs":[],"stateMutability":"nonpayable","type":"function"},{"inputs":[{"internalType":"uint256","name":"_newFee","type":"uint256"}],"name":"setProtocolFee","outputs":[],"stateMutability":"nonpayable","type":"function"},{"inputs":[],"name":"withdrawFees","outputs":[],"stateMutability":"nonpayable","type":"function"},{"stateMutability":"payable","type":"receive"}],"evm":{"bytecode":{"linkReferences":{},"object":"6080604052655af3107a400060015534801561001a57600080fd5b50336000806101000a81548173ffffffffffffffffffffffffffffffffffffffff021916908373ffffffffffffffffffffffffffffffffffffffff1602179055506111d48061006a6000396000f3fe60806040526004361061007f5760003560e01c8063b0e21e8a1161004e578063b0e21e8a14610135578063b23bf44314610160578063f3028ccd1461017c578063f414ea881461019857610086565b80633cbef3731461008b578063476343ee146100ca578063787dce3d146100e15780638da5cb5b1461010a57610086565b3661008657005b600080fd5b34801561009757600080fd5b506100b260048036038101906100ad9190610ad8565b6101c1565b6040516100c193929190610b96565b60405180910390f35b3480156100d657600080fd5b506100df61022e565b005b3480156100ed57600080fd5b5061010860048036038101906101039190610bf9565b610392565b005b34801561011657600080fd5b5061011f61042a565b60405161012c9190610c26565b60405180910390f35b34801561014157600080fd5b5061014a61044e565b6040516101579190610c41565b60405180910390f35b61017a60048036038101906101759190610ad8565b610454565b005b61019660048036038101906101919190610ad8565b6104ec565b005b3480156101a457600080fd5b506101bf60048036038101906101ba9190610c9a565b6106f8565b005b6002818051602081018201805184825260208301602085012081835280955050505050506000915090508060000154908060010160009054906101000a900473ffffffffffffffffffffffffffffffffffffffff16908060010160149054906101000a900460ff16905083565b60008054906101000a900473ffffffffffffffffffffffffffffffffffffffff1673ffffffffffffffffffffffffffffffffffffffff163373ffffffffffffffffffffffffffffffffffffffff16146102bc576040517f08c379a00000000000000000000000000000000000000000000000000000000081526004016102b390610d53565b60405180910390fd5b600047905060008060009054906101000a900473ffffffffffffffffffffffffffffffffffffffff1673ffffffffffffffffffffffffffffffffffffffff168260405161030890610da4565b60006040518083038185875af1925050503d8060008114610345576040519150601f19603f3d011682016040523d82523d6000602084013e61034a565b606091505b505090508061038e576040517f08c379a000000000000000000000000000000000000000000000000000000000815260040161038590610e05565b60405180910390fd5b5050565b60008054906101000a900473ffffffffffffffffffffffffffffffffffffffff1673ffffffffffffffffffffffffffffffffffffffff163373ffffffffffffffffffffffffffffffffffffffff1614610420576040517f08c379a000000000000000000000000000000000000000000000000000000000815260040161041790610d53565b60405180910390fd5b8060018190555050565b60008054906101000a900473ffffffffffffffffffffffffffffffffffffffff1681565b60015481565b600154341015610499576040517f08c379a000000000000000000000000000000000000000000000000000000000815260040161049090610e71565b60405180910390fd5b3373ffffffffffffffffffffffffffffffffffffffff167f2333e159bfab9e5471f0b05de3eb962fc027bedccc2b553ae9068c58cdeb0ef682346040516104e1929190610eff565b60405180910390a250565b6000341161052f576040517f08c379a000000000000000000000000000000000000000000000000000000000815260040161052690610f7b565b60405180910390fd5b600073ffffffffffffffffffffffffffffffffffffffff166002826040516105579190610fd7565b908152602001604051809103902060010160009054906101000a900473ffffffffffffffffffffffffffffffffffffffff1673ffffffffffffffffffffffffffffffffffffffff16146105df576040517f08c379a00000000000000000000000000000000000000000000000000000000081526004016105d69061103a565b60405180910390fd5b60405180606001604052803481526020013373ffffffffffffffffffffffffffffffffffffffff168152602001600015158152506002826040516106239190610fd7565b90815260200160405180910390206000820151816000015560208201518160010160006101000a81548173ffffffffffffffffffffffffffffffffffffffff021916908373ffffffffffffffffffffffffffffffffffffffff16021790555060408201518160010160146101000a81548160ff0219169083151502179055509050503373ffffffffffffffffffffffffffffffffffffffff167f2333e159bfab9e5471f0b05de3eb962fc027bedccc2b553ae9068c58cdeb0ef682346040516106ed929190610eff565b60405180910390a250565b60008054906101000a900473ffffffffffffffffffffffffffffffffffffffff1673ffffffffffffffffffffffffffffffffffffffff163373ffffffffffffffffffffffffffffffffffffffff1614610786576040517f08c379a000000000000000000000000000000000000000000000000000000000815260040161077d90610d53565b60405180910390fd5b60006002836040516107989190610fd7565b9081526020016040518091039020905060008160000154116107ef576040517f08c379a00000000000000000000000000000000000000000000000000000000081526004016107e6906110a6565b60405180910390fd5b8060010160149054906101000a900460ff1615610841576040517f08c379a000000000000000000000000000000000000000000000000000000000815260040161083890611112565b60405180910390fd5b60018160010160146101000a81548160ff02191690831515021790555060008160000154905060008373ffffffffffffffffffffffffffffffffffffffff168260405161088d90610da4565b60006040518083038185875af1925050503d80600081146108ca576040519150601f19603f3d011682016040523d82523d6000602084013e6108cf565b606091505b5050905080610913576040517f08c379a000000000000000000000000000000000000000000000000000000000815260040161090a9061117e565b60405180910390fd5b8373ffffffffffffffffffffffffffffffffffffffff16856040516109389190610fd7565b60405180910390207f5b80e074886f3bfe4a3ba58fc5c49211f135207e842ac020d8a9e1cc6312516b8460405161096f9190610c41565b60405180910390a35050505050565b6000604051905090565b600080fd5b600080fd5b600080fd5b600080fd5b6000601f19601f8301169050919050565b7f4e487b7100000000000000000000000000000000000000000000000000000000600052604160045260246000fd5b6109e58261099c565b810181811067ffffffffffffffff82111715610a0457610a036109ad565b5b80604052505050565b6000610a1761097e565b9050610a2382826109dc565b919050565b600067ffffffffffffffff821115610a4357610a426109ad565b5b610a4c8261099c565b9050602081019050919050565b82818337600083830152505050565b6000610a7b610a7684610a28565b610a0d565b905082815260208101848484011115610a9757610a96610997565b5b610aa2848285610a59565b509392505050565b600082601f830112610abf57610abe610992565b5b8135610acf848260208601610a68565b91505092915050565b600060208284031215610aee57610aed610988565b5b600082013567ffffffffffffffff811115610b0c57610b0b61098d565b5b610b1884828501610aaa565b91505092915050565b6000819050919050565b610b3481610b21565b82525050565b600073ffffffffffffffffffffffffffffffffffffffff82169050919050565b6000610b6582610b3a565b9050919050565b610b7581610b5a565b82525050565b60008115159050919050565b610b9081610b7b565b82525050565b6000606082019050610bab6000830186610b2b565b610bb86020830185610b6c565b610bc56040830184610b87565b949350505050565b610bd681610b21565b8114610be157600080fd5b50565b600081359050610bf381610bcd565b92915050565b600060208284031215610c0f57610c0e610988565b5b6000610c1d84828501610be4565b91505092915050565b6000602082019050610c3b6000830184610b6c565b92915050565b6000602082019050610c566000830184610b2b565b92915050565b6000610c6782610b3a565b9050919050565b610c7781610c5c565b8114610c8257600080fd5b50565b600081359050610c9481610c6e565b92915050565b60008060408385031215610cb157610cb0610988565b5b600083013567ffffffffffffffff811115610ccf57610cce61098d565b5b610cdb85828601610aaa565b9250506020610cec85828601610c85565b9150509250929050565b600082825260208201905092915050565b7f4f6e6c79206f776e65722063616e2063616c6c20746869730000000000000000600082015250565b6000610d3d601883610cf6565b9150610d4882610d07565b602082019050919050565b60006020820190508181036000830152610d6c81610d30565b9050919050565b600081905092915050565b50565b6000610d8e600083610d73565b9150610d9982610d7e565b600082019050919050565b6000610daf82610d81565b9150819050919050565b7f5769746864726177616c206661696c6564000000000000000000000000000000600082015250565b6000610def601183610cf6565b9150610dfa82610db9565b602082019050919050565b60006020820190508181036000830152610e1e81610de2565b9050919050565b7f496e73756666696369656e742066656500000000000000000000000000000000600082015250565b6000610e5b601083610cf6565b9150610e6682610e25565b602082019050919050565b60006020820190508181036000830152610e8a81610e4e565b9050919050565b600081519050919050565b60005b83811015610eba578082015181840152602081019050610e9f565b60008484015250505050565b6000610ed182610e91565b610edb8185610cf6565b9350610eeb818560208601610e9c565b610ef48161099c565b840191505092915050565b60006040820190508181036000830152610f198185610ec6565b9050610f286020830184610b2b565b9392505050565b7f5061796d656e74206d7573742062652067726561746572207468616e20300000600082015250565b6000610f65601e83610cf6565b9150610f7082610f2f565b602082019050919050565b60006020820190508181036000830152610f9481610f58565b9050919050565b600081905092915050565b6000610fb182610e91565b610fbb8185610f9b565b9350610fcb818560208601610e9c565b80840191505092915050565b6000610fe38284610fa6565b915081905092915050565b7f5175657374696f6e20494420616c726561647920657869737473000000000000600082015250565b6000611024601a83610cf6565b915061102f82610fee565b602082019050919050565b6000602082019050818103600083015261105381611017565b9050919050565b7f4e6f20626f756e747920666f756e640000000000000000000000000000000000600082015250565b6000611090600f83610cf6565b915061109b8261105a565b602082019050919050565b600060208201905081810360008301526110bf81611083565b9050919050565b7f426f756e747920616c72656164792072656c6561736564000000000000000000600082015250565b60006110fc601783610cf6565b9150611107826110c6565b602082019050919050565b6000602082019050818103600083015261112b816110ef565b9050919050565b7f5472616e73666572206661696c65640000000000000000000000000000000000600082015250565b6000611168600f83610cf6565b915061117382611132565b602082019050919050565b600060208201905081810360008301526111978161115b565b905091905056fea2646970667358221220598a3ee23aaa9f2b31ef49887df040afd1773f20b30a8964a8699591d41c025264736f6c63430008140033","opcodes":"PUSH1 0x80 PUSH1 0x40 MSTORE PUSH6 0x5AF3107A4000 PUSH1 0x1 SSTORE CALLVALUE DUP1 ISZERO PUSH2 0x1A JUMPI PUSH1 0x0 DUP1 REVERT JUMPDEST POP CALLER PUSH1 0x0 DUP1 PUSH2 0x100 EXP DUP2 SLOAD DUP2 PUSH20 0xFFFFFFFFFFFFFFFFFFFFFFFFFFFFFFFFFFFFFFFF MUL NOT AND SWAP1 DUP4 PUSH20 0xFFFFFFFFFFFFFFFFFFFFFFFFFFFFFFFFFFFFFFFF AND MUL OR SWAP1 SSTORE POP PUSH2 0x11D4 DUP1 PUSH2 0x6A PUSH1 0x0 CODECOPY PUSH1 0x0 RETURN INVALID PUSH1 0x80 PUSH1 0x40 MSTORE PUSH1 0x4 CALLDATASIZE LT PUSH2 0x7F JUMPI PUSH1 0x0 CALLDATALOAD PUSH1 0xE0 SHR DUP1 PUSH4 0xB0E21E8A GT PUSH2 0x4E JUMPI DUP1 PUSH4 0xB0E21E8A EQ PUSH2 0x135 JUMPI DUP1 PUSH4 0xB23BF443 EQ PUSH2 0x160 JUMPI DUP1 PUSH4 0xF3028CCD EQ PUSH2 0x17C JUMPI DUP1 PUSH4 0xF414EA88 EQ PUSH2 0x198 JUMPI PUSH2 0x86 JUMP JUMPDEST DUP1 PUSH4 0x3CBEF373 EQ PUSH2 0x8B JUMPI DUP1 PUSH4 0x476343EE EQ PUSH2 0xCA JUMPI DUP1 PUSH4 0x787DCE3D EQ PUSH2 0xE1 JUMPI DUP1 PUSH4 0x8DA5CB5B EQ PUSH2 0x10A JUMPI PUSH2 0x86 JUMP JUMPDEST CALLDATASIZE PUSH2 0x86 JUMPI STOP JUMPDEST PUSH1 0x0 DUP1 REVERT JUMPDEST CALLVALUE DUP1 ISZERO PUSH2 0x97 JUMPI PUSH1 0x0 DUP1 REVERT JUMPDEST POP PUSH2 0xB2 PUSH1 0x4 DUP1 CALLDATASIZE SUB DUP2 ADD SWAP1 PUSH2 0xAD SWAP2 SWAP1 PUSH2 0xAD8 JUMP JUMPDEST PUSH2 0x1C1 JUMP JUMPDEST PUSH1 0x40 MLOAD PUSH2 0xC1 SWAP4 SWAP3 SWAP2 SWAP1 PUSH2 0xB96 JUMP JUMPDEST PUSH1 0x40 MLOAD DUP1 SWAP2 SUB SWAP1 RETURN JUMPDEST CALLVALUE DUP1 ISZERO PUSH2 0xD6 JUMPI PUSH1 0x0 DUP1 REVERT JUMPDEST POP PUSH2 0xDF PUSH2 0x22E JUMP JUMPDEST STOP JUMPDEST CALLVALUE DUP1 ISZERO PUSH2 0xED JUMPI PUSH1 0x0 DUP1 REVERT JUMPDEST POP PUSH2 0x108 PUSH1 0x4 DUP1 CALLDATASIZE SUB DUP2 ADD SWAP1 PUSH2 0x103 SWAP2 SWAP1 PUSH2 0xBF9 JUMP JUMPDEST PUSH2 0x392 JUMP JUMPDEST STOP JUMPDEST CALLVALUE DUP1 ISZERO PUSH2 0x116 JUMPI PUSH1 0x0 DUP1 REVERT JUMPDEST POP PUSH2 0x11F PUSH2 0x42A JUMP JUMPDEST PUSH1 0x40 MLOAD PUSH2 0x12C SWAP2 SWAP1 PUSH2 0xC26 JUMP JUMPDEST PUSH1 0x40 MLOAD DUP1 SWAP2 SUB SWAP1 RETURN JUMPDEST CALLVALUE DUP1 ISZERO PUSH2 0x141 JUMPI PUSH1 0x0 DUP1 REVERT JUMPDEST POP PUSH2 0x14A PUSH2 0x44E JUMP JUMPDEST PUSH1 0x40 MLOAD PUSH2 0x157 SWAP2 SWAP1 PUSH2 0xC41 JUMP JUMPDEST PUSH1 0x40 MLOAD DUP1 SWAP2 SUB SWAP1 RETURN JUMPDEST PUSH2 0x17A PUSH1 0x4 DUP1 CALLDATASIZE SUB DUP2 ADD SWAP1 PUSH2 0x175 SWAP2 SWAP1 PUSH2 0xAD8 JUMP JUMPDEST PUSH2 0x454 JUMP JUMPDEST STOP JUMPDEST PUSH2 0x196 PUSH1 0x4 DUP1 CALLDATASIZE SUB DUP2 ADD SWAP1 PUSH2 0x191 SWAP2 SWAP1 PUSH2 0xAD8 JUMP JUMPDEST PUSH2 0x4EC JUMP JUMPDEST STOP JUMPDEST CALLVALUE DUP1 ISZERO PUSH2 0x1A4 JUMPI PUSH1 0x0 DUP1 REVERT JUMPDEST POP PUSH2 0x1BF PUSH1 0x4 DUP1 CALLDATASIZE SUB DUP2 ADD SWAP1 PUSH2 0x1BA SWAP2 SWAP1 PUSH2 0xC9A JUMP JUMPDEST PUSH2 0x6F8 JUMP JUMPDEST STOP JUMPDEST PUSH1 0x2 DUP2 DUP1 MLOAD PUSH1 0x20 DUP2 ADD DUP3 ADD DUP1 MLOAD DUP5 DUP3 MSTORE PUSH1 0x20 DUP4 ADD PUSH1 0x20 DUP6 ADD KECCAK256 DUP2 DUP4 MSTORE DUP1 SWAP6 POP POP POP POP POP POP PUSH1 0x0 SWAP2 POP SWAP1 POP DUP1 PUSH1 0x0 ADD SLOAD SWAP1 DUP1 PUSH1 0x1 ADD PUSH1 0x0 SWAP1 SLOAD SWAP1 PUSH2 0x100 EXP SWAP1 DIV PUSH20 0xFFFFFFFFFFFFFFFFFFFFFFFFFFFFFFFFFFFFFFFF AND SWAP1 DUP1 PUSH1 0x1 ADD PUSH1 0x14 SWAP1 SLOAD SWAP1 PUSH2 0x100 EXP SWAP1 DIV PUSH1 0xFF AND SWAP1 POP DUP4 JUMP JUMPDEST PUSH1 0x0 DUP1 SLOAD SWAP1 PUSH2 0x100 EXP SWAP1 DIV PUSH20 0xFFFFFFFFFFFFFFFFFFFFFFFFFFFFFFFFFFFFFFFF AND PUSH20 0xFFFFFFFFFFFFFFFFFFFFFFFFFFFFFFFFFFFFFFFF AND CALLER PUSH20 0xFFFFFFFFFFFFFFFFFFFFFFFFFFFFFFFFFFFFFFFF AND EQ PUSH2 0x2BC JUMPI PUSH1 0x40 MLOAD PUSH32 0x8C379A000000000000000000000000000000000000000000000000000000000 DUP2 MSTORE PUSH1 0x4 ADD PUSH2 0x2B3 SWAP1 PUSH2 0xD53 JUMP JUMPDEST PUSH1 0x40 MLOAD DUP1 SWAP2 SUB SWAP1 REVERT JUMPDEST PUSH1 0x0 SELFBALANCE SWAP1 POP PUSH1 0x0 DUP1 PUSH1 0x0 SWAP1 SLOAD SWAP1 PUSH2 0x100 EXP SWAP1 DIV PUSH20 0xFFFFFFFFFFFFFFFFFFFFFFFFFFFFFFFFFFFFFFFF AND PUSH20 0xFFFFFFFFFFFFFFFFFFFFFFFFFFFFFFFFFFFFFFFF AND DUP3 PUSH1 0x40 MLOAD PUSH2 0x308 SWAP1 PUSH2 0xDA4 JUMP JUMPDEST PUSH1 0x0 PUSH1 0x40 MLOAD DUP1 DUP4 SUB DUP2 DUP6 DUP8 GAS CALL SWAP3 POP POP POP RETURNDATASIZE DUP1 PUSH1 0x0 DUP2 EQ PUSH2 0x345 JUMPI PUSH1 0x40 MLOAD SWAP2 POP PUSH1 0x1F NOT PUSH1 0x3F RETURNDATASIZE ADD AND DUP3 ADD PUSH1 0x40 MSTORE RETURNDATASIZE DUP3 MSTORE RETURNDATASIZE PUSH1 0x0 PUSH1 0x20 DUP5 ADD RETURNDATACOPY PUSH2 0x34A JUMP JUMPDEST PUSH1 0x60 SWAP2 POP JUMPDEST POP POP SWAP1 POP DUP1 PUSH2 0x38E JUMPI PUSH1 0x40 MLOAD PUSH32 0x8C379A000000000000000000000000000000000000000000000000000000000 DUP2 MSTORE PUSH1 0x4 ADD PUSH2 0x385 SWAP1 PUSH2 0xE05 JUMP JUMPDEST PUSH1 0x40 MLOAD DUP1 SWAP2 SUB SWAP1 REVERT JUMPDEST POP POP JUMP JUMPDEST PUSH1 0x0 DUP1 SLOAD SWAP1 PUSH2 0x100 EXP SWAP1 DIV PUSH20 0xFFFFFFFFFFFFFFFFFFFFFFFFFFFFFFFFFFFFFFFF AND PUSH20 0xFFFFFFFFFFFFFFFFFFFFFFFFFFFFFFFFFFFFFFFF AND CALLER PUSH20 0xFFFFFFFFFFFFFFFFFFFFFFFFFFFFFFFFFFFFFFFF AND EQ PUSH2 0x420 JUMPI PUSH1 0x40 MLOAD PUSH32 0x8C379A000000000000000000000000000000000000000000000000000000000 DUP2 MSTORE PUSH1 0x4 ADD PUSH2 0x417 SWAP1 PUSH2 0xD53 JUMP JUMPDEST PUSH1 0x40 MLOAD DUP1 SWAP2 SUB SWAP1 REVERT JUMPDEST DUP1 PUSH1 0x1 DUP2 SWAP1 SSTORE POP POP JUMP JUMPDEST PUSH1 0x0 DUP1 SLOAD SWAP1 PUSH2 0x100 EXP SWAP1 DIV PUSH20 0xFFFFFFFFFFFFFFFFFFFFFFFFFFFFFFFFFFFFFFFF AND DUP2 JUMP JUMPDEST PUSH1 0x1 SLOAD DUP2 JUMP JUMPDEST PUSH1 0x1 SLOAD CALLVALUE LT ISZERO PUSH2 0x499 JUMPI PUSH1 0x40 MLOAD PUSH32 0x8C379A000000000000000000000000000000000000000000000000000000000 DUP2 MSTORE PUSH1 0x4 ADD PUSH2 0x490 SWAP1 PUSH2 0xE71 JUMP JUMPDEST PUSH1 0x40 MLOAD DUP1 SWAP2 SUB SWAP1 REVERT JUMPDEST CALLER PUSH20 0xFFFFFFFFFFFFFFFFFFFFFFFFFFFFFFFFFFFFFFFF AND PUSH32 0x2333E159BFAB9E5471F0B05DE3EB962FC027BEDCCC2B553AE9068C58CDEB0EF6 DUP3 CALLVALUE PUSH1 0x40 MLOAD PUSH2 0x4E1 SWAP3 SWAP2 SWAP1 PUSH2 0xEFF JUMP JUMPDEST PUSH1 0x40 MLOAD DUP1 SWAP2 SUB SWAP1 LOG2 POP JUMP JUMPDEST PUSH1 0x0 CALLVALUE GT PUSH2 0x52F JUMPI PUSH1 0x40 MLOAD PUSH32 0x8C379A000000000000000000000000000000000000000000000000000000000 DUP2 MSTORE PUSH1 0x4 ADD PUSH2 0x526 SWAP1 PUSH2 0xF7B JUMP JUMPDEST PUSH1 0x40 MLOAD DUP1 SWAP2 SUB SWAP1 REVERT JUMPDEST PUSH1 0x0 PUSH20 0xFFFFFFFFFFFFFFFFFFFFFFFFFFFFFFFFFFFFFFFF AND PUSH1 0x2 DUP3 PUSH1 0x40 MLOAD PUSH2 0x557 SWAP2 SWAP1 PUSH2 0xFD7 JUMP JUMPDEST SWAP1 DUP2 MSTORE PUSH1 0x20 ADD PUSH1 0x40 MLOAD DUP1 SWAP2 SUB SWAP1 KECCAK256 PUSH1 0x1 ADD PUSH1 0x0 SWAP1 SLOAD SWAP1 PUSH2 0x100 EXP SWAP1 DIV PUSH20 0xFFFFFFFFFFFFFFFFFFFFFFFFFFFFFFFFFFFFFFFF AND PUSH20 0xFFFFFFFFFFFFFFFFFFFFFFFFFFFFFFFFFFFFFFFF AND EQ PUSH2 0x5DF JUMPI PUSH1 0x40 MLOAD PUSH32 0x8C379A000000000000000000000000000000000000000000000000000000000 DUP2 MSTORE PUSH1 0x4 ADD PUSH2 0x5D6 SWAP1 PUSH2 0x103A JUMP JUMPDEST PUSH1 0x40 MLOAD DUP1 SWAP2 SUB SWAP1 REVERT JUMPDEST PUSH1 0x40 MLOAD DUP1 PUSH1 0x60 ADD PUSH1 0x40 MSTORE DUP1 CALLVALUE DUP2 MSTORE PUSH1 0x20 ADD CALLER PUSH20 0xFFFFFFFFFFFFFFFFFFFFFFFFFFFFFFFFFFFFFFFF AND DUP2 MSTORE PUSH1 0x20 ADD PUSH1 0x0 ISZERO ISZERO DUP2 MSTORE POP PUSH1 0x2 DUP3 PUSH1 0x40 MLOAD PUSH2 0x623 SWAP2 SWAP1 PUSH2 0xFD7 JUMP JUMPDEST SWAP1 DUP2 MSTORE PUSH1 0x20 ADD PUSH1 0x40 MLOAD DUP1 SWAP2 SUB SWAP1 KECCAK256 PUSH1 0x0 DUP3 ADD MLOAD DUP2 PUSH1 0x0 ADD SSTORE PUSH1 0x20 DUP3 ADD MLOAD DUP2 PUSH1 0x1 ADD PUSH1 0x0 PUSH2 0x100 EXP DUP2 SLOAD DUP2 PUSH20 0xFFFFFFFFFFFFFFFFFFFFFFFFFFFFFFFFFFFFFFFF MUL NOT AND SWAP1 DUP4 PUSH20 0xFFFFFFFFFFFFFFFFFFFFFFFFFFFFFFFFFFFFFFFF AND MUL OR SWAP1 SSTORE POP PUSH1 0x40 DUP3 ADD MLOAD DUP2 PUSH1 0x1 ADD PUSH1 0x14 PUSH2 0x100 EXP DUP2 SLOAD DUP2 PUSH1 0xFF MUL NOT AND SWAP1 DUP4 ISZERO ISZERO MUL OR SWAP1 SSTORE POP SWAP1 POP POP CALLER PUSH20 0xFFFFFFFFFFFFFFFFFFFFFFFFFFFFFFFFFFFFFFFF AND PUSH32 0x2333E159BFAB9E5471F0B05DE3EB962FC027BEDCCC2B553AE9068C58CDEB0EF6 DUP3 CALLVALUE PUSH1 0x40 MLOAD PUSH2 0x6ED SWAP3 SWAP2 SWAP1 PUSH2 0xEFF JUMP JUMPDEST PUSH1 0x40 MLOAD DUP1 SWAP2 SUB SWAP1 LOG2 POP JUMP JUMPDEST PUSH1 0x0 DUP1 SLOAD SWAP1 PUSH2 0x100 EXP SWAP1 DIV PUSH20 0xFFFFFFFFFFFFFFFFFFFFFFFFFFFFFFFFFFFFFFFF AND PUSH20 0xFFFFFFFFFFFFFFFFFFFFFFFFFFFFFFFFFFFFFFFF AND CALLER PUSH20 0xFFFFFFFFFFFFFFFFFFFFFFFFFFFFFFFFFFFFFFFF AND EQ PUSH2 0x786 JUMPI PUSH1 0x40 MLOAD PUSH32 0x8C379A000000000000000000000000000000000000000000000000000000000 DUP2 MSTORE PUSH1 0x4 ADD PUSH2 0x77D SWAP1 PUSH2 0xD53 JUMP JUMPDEST PUSH1 0x40 MLOAD DUP1 SWAP2 SUB SWAP1 REVERT JUMPDEST PUSH1 0x0 PUSH1 0x2 DUP4 PUSH1 0x40 MLOAD PUSH2 0x798 SWAP2 SWAP1 PUSH2 0xFD7 JUMP JUMPDEST SWAP1 DUP2 MSTORE PUSH1 0x20 ADD PUSH1 0x40 MLOAD DUP1 SWAP2 SUB SWAP1 KECCAK256 SWAP1 POP PUSH1 0x0 DUP2 PUSH1 0x0 ADD SLOAD GT PUSH2 0x7EF JUMPI PUSH1 0x40 MLOAD PUSH32 0x8C379A000000000000000000000000000000000000000000000000000000000 DUP2 MSTORE PUSH1 0x4 ADD PUSH2 0x7E6 SWAP1 PUSH2 0x10A6 JUMP JUMPDEST PUSH1 0x40 MLOAD DUP1 SWAP2 SUB SWAP1 REVERT JUMPDEST DUP1 PUSH1 0x1 ADD PUSH1 0x14 SWAP1 SLOAD SWAP1 PUSH2 0x100 EXP SWAP1 DIV PUSH1 0xFF AND ISZERO PUSH2 0x841 JUMPI PUSH1 0x40 MLOAD PUSH32 0x8C379A000000000000000000000000000000000000000000000000000000000 DUP2 MSTORE PUSH1 0x4 ADD PUSH2 0x838 SWAP1 PUSH2 0x1112 JUMP JUMPDEST PUSH1 0x40 MLOAD DUP1 SWAP2 SUB SWAP1 REVERT JUMPDEST PUSH1 0x1 DUP2 PUSH1 0x1 ADD PUSH1 0x14 PUSH2 0x100 EXP DUP2 SLOAD DUP2 PUSH1 0xFF MUL NOT AND SWAP1 DUP4 ISZERO ISZERO MUL OR SWAP1 SSTORE POP PUSH1 0x0 DUP2 PUSH1 0x0 ADD SLOAD SWAP1 POP PUSH1 0x0 DUP4 PUSH20 0xFFFFFFFFFFFFFFFFFFFFFFFFFFFFFFFFFFFFFFFF AND DUP3 PUSH1 0x40 MLOAD PUSH2 0x88D SWAP1 PUSH2 0xDA4 JUMP JUMPDEST PUSH1 0x0 PUSH1 0x40 MLOAD DUP1 DUP4 SUB DUP2 DUP6 DUP8 GAS CALL SWAP3 POP POP POP RETURNDATASIZE DUP1 PUSH1 0x0 DUP2 EQ PUSH2 0x8CA JUMPI PUSH1 0x40 MLOAD SWAP2 POP PUSH1 0x1F NOT PUSH1 0x3F RETURNDATASIZE ADD AND DUP3 ADD PUSH1 0x40 MSTORE RETURNDATASIZE DUP3 MSTORE RETURNDATASIZE PUSH1 0x0 PUSH1 0x20 DUP5 ADD RETURNDATACOPY PUSH2 0x8CF JUMP JUMPDEST PUSH1 0x60 SWAP2 POP JUMPDEST POP POP SWAP1 POP DUP1 PUSH2 0x913 JUMPI PUSH1 0x40 MLOAD PUSH32 0x8C379A000000000000000000000000000000000000000000000000000000000 DUP2 MSTORE PUSH1 0x4 ADD PUSH2 0x90A SWAP1 PUSH2 0x117E JUMP JUMPDEST PUSH1 0x40 MLOAD DUP1 SWAP2 SUB SWAP1 REVERT JUMPDEST DUP4 PUSH20 0xFFFFFFFFFFFFFFFFFFFFFFFFFFFFFFFFFFFFFFFF AND DUP6 PUSH1 0x40 MLOAD PUSH2 0x938 SWAP2 SWAP1 PUSH2 0xFD7 JUMP JUMPDEST PUSH1 0x40 MLOAD DUP1 SWAP2 SUB SWAP1 KECCAK256 PUSH32 0x5B80E074886F3BFE4A3BA58FC5C49211F135207E842AC020D8A9E1CC6312516B DUP5 PUSH1 0x40 MLOAD PUSH2 0x96F SWAP2 SWAP1 PUSH2 0xC41 JUMP JUMPDEST PUSH1 0x40 MLOAD DUP1 SWAP2 SUB SWAP1 LOG3 POP POP POP POP POP JUMP JUMPDEST PUSH1 0x0 PUSH1 0x40 MLOAD SWAP1 POP SWAP1 JUMP JUMPDEST PUSH1 0x0 DUP1 REVERT JUMPDEST PUSH1 0x0 DUP1 REVERT JUMPDEST PUSH1 0x0 DUP1 REVERT JUMPDEST PUSH1 0x0 DUP1 REVERT JUMPDEST PUSH1 0x0 PUSH1 0x1F NOT PUSH1 0x1F DUP4 ADD AND SWAP1 POP SWAP2 SWAP1 POP JUMP JUMPDEST PUSH32 0x4E487B7100000000000000000000000000000000000000000000000000000000 PUSH1 0x0 MSTORE PUSH1 0x41 PUSH1 0x4 MSTORE PUSH1 0x24 PUSH1 0x0 REVERT JUMPDEST PUSH2 0x9E5 DUP3 PUSH2 0x99C JUMP JUMPDEST DUP2 ADD DUP2 DUP2 LT PUSH8 0xFFFFFFFFFFFFFFFF DUP3 GT OR ISZERO PUSH2 0xA04 JUMPI PUSH2 0xA03 PUSH2 0x9AD JUMP JUMPDEST JUMPDEST DUP1 PUSH1 0x40 MSTORE POP POP POP JUMP JUMPDEST PUSH1 0x0 PUSH2 0xA17 PUSH2 0x97E JUMP JUMPDEST SWAP1 POP PUSH2 0xA23 DUP3 DUP3 PUSH2 0x9DC JUMP JUMPDEST SWAP2 SWAP1 POP JUMP JUMPDEST PUSH1 0x0 PUSH8 0xFFFFFFFFFFFFFFFF DUP3 GT ISZERO PUSH2 0xA43 JUMPI PUSH2 0xA42 PUSH2 0x9AD JUMP JUMPDEST JUMPDEST PUSH2 0xA4C DUP3 PUSH2 0x99C JUMP JUMPDEST SWAP1 POP PUSH1 0x20 DUP2 ADD SWAP1 POP SWAP2 SWAP1 POP JUMP JUMPDEST DUP3 DUP2 DUP4 CALLDATACOPY PUSH1 0x0 DUP4 DUP4 ADD MSTORE POP POP POP JUMP JUMPDEST PUSH1 0x0 PUSH2 0xA7B PUSH2 0xA76 DUP5 PUSH2 0xA28 JUMP JUMPDEST PUSH2 0xA0D JUMP JUMPDEST SWAP1 POP DUP3 DUP2 MSTORE PUSH1 0x20 DUP2 ADD DUP5 DUP5 DUP5 ADD GT ISZERO PUSH2 0xA97 JUMPI PUSH2 0xA96 PUSH2 0x997 JUMP JUMPDEST JUMPDEST PUSH2 0xAA2 DUP5 DUP3 DUP6 PUSH2 0xA59 JUMP JUMPDEST POP SWAP4 SWAP3 POP POP POP JUMP JUMPDEST PUSH1 0x0 DUP3 PUSH1 0x1F DUP4 ADD SLT PUSH2 0xABF JUMPI PUSH2 0xABE PUSH2 0x992 JUMP JUMPDEST JUMPDEST DUP2 CALLDATALOAD PUSH2 0xACF DUP5 DUP3 PUSH1 0x20 DUP7 ADD PUSH2 0xA68 JUMP JUMPDEST SWAP2 POP POP SWAP3 SWAP2 POP POP JUMP JUMPDEST PUSH1 0x0 PUSH1 0x20 DUP3 DUP5 SUB SLT ISZERO PUSH2 0xAEE JUMPI PUSH2 0xAED PUSH2 0x988 JUMP JUMPDEST JUMPDEST PUSH1 0x0 DUP3 ADD CALLDATALOAD PUSH8 0xFFFFFFFFFFFFFFFF DUP2 GT ISZERO PUSH2 0xB0C JUMPI PUSH2 0xB0B PUSH2 0x98D JUMP JUMPDEST JUMPDEST PUSH2 0xB18 DUP5 DUP3 DUP6 ADD PUSH2 0xAAA JUMP JUMPDEST SWAP2 POP POP SWAP3 SWAP2 POP POP JUMP JUMPDEST PUSH1 0x0 DUP2 SWAP1 POP SWAP2 SWAP1 POP JUMP JUMPDEST PUSH2 0xB34 DUP2 PUSH2 0xB21 JUMP JUMPDEST DUP3 MSTORE POP POP JUMP JUMPDEST PUSH1 0x0 PUSH20 0xFFFFFFFFFFFFFFFFFFFFFFFFFFFFFFFFFFFFFFFF DUP3 AND SWAP1 POP SWAP2 SWAP1 POP JUMP JUMPDEST PUSH1 0x0 PUSH2 0xB65 DUP3 PUSH2 0xB3A JUMP JUMPDEST SWAP1 POP SWAP2 SWAP1 POP JUMP JUMPDEST PUSH2 0xB75 DUP2 PUSH2 0xB5A JUMP JUMPDEST DUP3 MSTORE POP POP JUMP JUMPDEST PUSH1 0x0 DUP2 ISZERO ISZERO SWAP1 POP SWAP2 SWAP1 POP JUMP JUMPDEST PUSH2 0xB90 DUP2 PUSH2 0xB7B JUMP JUMPDEST DUP3 MSTORE POP POP JUMP JUMPDEST PUSH1 0x0 PUSH1 0x60 DUP3 ADD SWAP1 POP PUSH2 0xBAB PUSH1 0x0 DUP4 ADD DUP7 PUSH2 0xB2B JUMP JUMPDEST PUSH2 0xBB8 PUSH1 0x20 DUP4 ADD DUP6 PUSH2 0xB6C JUMP JUMPDEST PUSH2 0xBC5 PUSH1 0x40 DUP4 ADD DUP5 PUSH2 0xB87 JUMP JUMPDEST SWAP5 SWAP4 POP POP POP POP JUMP JUMPDEST PUSH2 0xBD6 DUP2 PUSH2 0xB21 JUMP JUMPDEST DUP2 EQ PUSH2 0xBE1 JUMPI PUSH1 0x0 DUP1 REVERT JUMPDEST POP JUMP JUMPDEST PUSH1 0x0 DUP2 CALLDATALOAD SWAP1 POP PUSH2 0xBF3 DUP2 PUSH2 0xBCD JUMP JUMPDEST SWAP3 SWAP2 POP POP JUMP JUMPDEST PUSH1 0x0 PUSH1 0x20 DUP3 DUP5 SUB SLT ISZERO PUSH2 0xC0F JUMPI PUSH2 0xC0E PUSH2 0x988 JUMP JUMPDEST JUMPDEST PUSH1 0x0 PUSH2 0xC1D DUP5 DUP3 DUP6 ADD PUSH2 0xBE4 JUMP JUMPDEST SWAP2 POP POP SWAP3 SWAP2 POP POP JUMP JUMPDEST PUSH1 0x0 PUSH1 0x20 DUP3 ADD SWAP1 POP PUSH2 0xC3B PUSH1 0x0 DUP4 ADD DUP5 PUSH2 0xB6C JUMP JUMPDEST SWAP3 SWAP2 POP POP JUMP JUMPDEST PUSH1 0x0 PUSH1 0x20 DUP3 ADD SWAP1 POP PUSH2 0xC56 PUSH1 0x0 DUP4 ADD DUP5 PUSH2 0xB2B JUMP JUMPDEST SWAP3 SWAP2 POP POP JUMP JUMPDEST PUSH1 0x0 PUSH2 0xC67 DUP3 PUSH2 0xB3A JUMP JUMPDEST SWAP1 POP SWAP2 SWAP1 POP JUMP JUMPDEST PUSH2 0xC77 DUP2 PUSH2 0xC5C JUMP JUMPDEST DUP2 EQ PUSH2 0xC82 JUMPI PUSH1 0x0 DUP1 REVERT JUMPDEST POP JUMP JUMPDEST PUSH1 0x0 DUP2 CALLDATALOAD SWAP1 POP PUSH2 0xC94 DUP2 PUSH2 0xC6E JUMP JUMPDEST SWAP3 SWAP2 POP POP JUMP JUMPDEST PUSH1 0x0 DUP1 PUSH1 0x40 DUP4 DUP6 SUB SLT ISZERO PUSH2 0xCB1 JUMPI PUSH2 0xCB0 PUSH2 0x988 JUMP JUMPDEST JUMPDEST PUSH1 0x0 DUP4 ADD CALLDATALOAD PUSH8 0xFFFFFFFFFFFFFFFF DUP2 GT ISZERO PUSH2 0xCCF JUMPI PUSH2 0xCCE PUSH2 0x98D JUMP JUMPDEST JUMPDEST PUSH2 0xCDB DUP6 DUP3 DUP7 ADD PUSH2 0xAAA JUMP JUMPDEST SWAP3 POP POP PUSH1 0x20 PUSH2 0xCEC DUP6 DUP3 DUP7 ADD PUSH2 0xC85 JUMP JUMPDEST SWAP2 POP POP SWAP3 POP SWAP3 SWAP1 POP JUMP JUMPDEST PUSH1 0x0 DUP3 DUP3 MSTORE PUSH1 0x20 DUP3 ADD SWAP1 POP SWAP3 SWAP2 POP POP JUMP JUMPDEST PUSH32 0x4F6E6C79206F776E65722063616E2063616C6C20746869730000000000000000 PUSH1 0x0 DUP3 ADD MSTORE POP JUMP JUMPDEST PUSH1 0x0 PUSH2 0xD3D PUSH1 0x18 DUP4 PUSH2 0xCF6 JUMP JUMPDEST SWAP2 POP PUSH2 0xD48 DUP3 PUSH2 0xD07 JUMP JUMPDEST PUSH1 0x20 DUP3 ADD SWAP1 POP SWAP2 SWAP1 POP JUMP JUMPDEST PUSH1 0x0 PUSH1 0x20 DUP3 ADD SWAP1 POP DUP2 DUP2 SUB PUSH1 0x0 DUP4 ADD MSTORE PUSH2 0xD6C DUP2 PUSH2 0xD30 JUMP JUMPDEST SWAP1 POP SWAP2 SWAP1 POP JUMP JUMPDEST PUSH1 0x0 DUP2 SWAP1 POP SWAP3 SWAP2 POP POP JUMP JUMPDEST POP JUMP JUMPDEST PUSH1 0x0 PUSH2 0xD8E PUSH1 0x0 DUP4 PUSH2 0xD73 JUMP JUMPDEST SWAP2 POP PUSH2 0xD99 DUP3 PUSH2 0xD7E JUMP JUMPDEST PUSH1 0x0 DUP3 ADD SWAP1 POP SWAP2 SWAP1 POP JUMP JUMPDEST PUSH1 0x0 PUSH2 0xDAF DUP3 PUSH2 0xD81 JUMP JUMPDEST SWAP2 POP DUP2 SWAP1 POP SWAP2 SWAP1 POP JUMP JUMPDEST PUSH32 0x5769746864726177616C206661696C6564000000000000000000000000000000 PUSH1 0x0 DUP3 ADD MSTORE POP JUMP JUMPDEST PUSH1 0x0 PUSH2 0xDEF PUSH1 0x11 DUP4 PUSH2 0xCF6 JUMP JUMPDEST SWAP2 POP PUSH2 0xDFA DUP3 PUSH2 0xDB9 JUMP JUMPDEST PUSH1 0x20 DUP3 ADD SWAP1 POP SWAP2 SWAP1 POP JUMP JUMPDEST PUSH1 0x0 PUSH1 0x20 DUP3 ADD SWAP1 POP DUP2 DUP2 SUB PUSH1 0x0 DUP4 ADD MSTORE PUSH2 0xE1E DUP2 PUSH2 0xDE2 JUMP JUMPDEST SWAP1 POP SWAP2 SWAP1 POP JUMP JUMPDEST PUSH32 0x496E73756666696369656E742066656500000000000000000000000000000000 PUSH1 0x0 DUP3 ADD MSTORE POP JUMP JUMPDEST PUSH1 0x0 PUSH2 0xE5B PUSH1 0x10 DUP4 PUSH2 0xCF6 JUMP JUMPDEST SWAP2 POP PUSH2 0xE66 DUP3 PUSH2 0xE25 JUMP JUMPDEST PUSH1 0x20 DUP3 ADD SWAP1 POP SWAP2 SWAP1 POP JUMP JUMPDEST PUSH1 0x0 PUSH1 0x20 DUP3 ADD SWAP1 POP DUP2 DUP2 SUB PUSH1 0x0 DUP4 ADD MSTORE PUSH2 0xE8A DUP2 PUSH2 0xE4E JUMP JUMPDEST SWAP1 POP SWAP2 SWAP1 POP JUMP JUMPDEST PUSH1 0x0 DUP2 MLOAD SWAP1 POP SWAP2 SWAP1 POP JUMP JUMPDEST PUSH1 0x0 JUMPDEST DUP4 DUP2 LT ISZERO PUSH2 0xEBA JUMPI DUP1 DUP3 ADD MLOAD DUP2 DUP5 ADD MSTORE PUSH1 0x20 DUP2 ADD SWAP1 POP PUSH2 0xE9F JUMP JUMPDEST PUSH1 0x0 DUP5 DUP5 ADD MSTORE POP POP POP POP JUMP JUMPDEST PUSH1 0x0 PUSH2 0xED1 DUP3 PUSH2 0xE91 JUMP JUMPDEST PUSH2 0xEDB DUP2 DUP6 PUSH2 0xCF6 JUMP JUMPDEST SWAP4 POP PUSH2 0xEEB DUP2 DUP6 PUSH1 0x20 DUP7 ADD PUSH2 0xE9C JUMP JUMPDEST PUSH2 0xEF4 DUP2 PUSH2 0x99C JUMP JUMPDEST DUP5 ADD SWAP2 POP POP SWAP3 SWAP2 POP POP JUMP JUMPDEST PUSH1 0x0 PUSH1 0x40 DUP3 ADD SWAP1 POP DUP2 DUP2 SUB PUSH1 0x0 DUP4 ADD MSTORE PUSH2 0xF19 DUP2 DUP6 PUSH2 0xEC6 JUMP JUMPDEST SWAP1 POP PUSH2 0xF28 PUSH1 0x20 DUP4 ADD DUP5 PUSH2 0xB2B JUMP JUMPDEST SWAP4 SWAP3 POP POP POP JUMP JUMPDEST PUSH32 0x5061796D656E74206D7573742062652067726561746572207468616E20300000 PUSH1 0x0 DUP3 ADD MSTORE POP JUMP JUMPDEST PUSH1 0x0 PUSH2 0xF65 PUSH1 0x1E DUP4 PUSH2 0xCF6 JUMP JUMPDEST SWAP2 POP PUSH2 0xF70 DUP3 PUSH2 0xF2F JUMP JUMPDEST PUSH1 0x20 DUP3 ADD SWAP1 POP SWAP2 SWAP1 POP JUMP JUMPDEST PUSH1 0x0 PUSH1 0x20 DUP3 ADD SWAP1 POP DUP2 DUP2 SUB PUSH1 0x0 DUP4 ADD MSTORE PUSH2 0xF94 DUP2 PUSH2 0xF58 JUMP JUMPDEST SWAP1 POP SWAP2 SWAP1 POP JUMP JUMPDEST PUSH1 0x0 DUP2 SWAP1 POP SWAP3 SWAP2 POP POP JUMP JUMPDEST PUSH1 0x0 PUSH2 0xFB1 DUP3 PUSH2 0xE91 JUMP JUMPDEST PUSH2 0xFBB DUP2 DUP6 PUSH2 0xF9B JUMP JUMPDEST SWAP4 POP PUSH2 0xFCB DUP2 DUP6 PUSH1 0x20 DUP7 ADD PUSH2 0xE9C JUMP JUMPDEST DUP1 DUP5 ADD SWAP2 POP POP SWAP3 SWAP2 POP POP JUMP JUMPDEST PUSH1 0x0 PUSH2 0xFE3 DUP3 DUP5 PUSH2 0xFA6 JUMP JUMPDEST SWAP2 POP DUP2 SWAP1 POP SWAP3 SWAP2 POP POP JUMP JUMPDEST PUSH32 0x5175657374696F6E20494420616C726561647920657869737473000000000000 PUSH1 0x0 DUP3 ADD MSTORE POP JUMP JUMPDEST PUSH1 0x0 PUSH2 0x1024 PUSH1 0x1A DUP4 PUSH2 0xCF6 JUMP JUMPDEST SWAP2 POP PUSH2 0x102F DUP3 PUSH2 0xFEE JUMP JUMPDEST PUSH1 0x20 DUP3 ADD SWAP1 POP SWAP2 SWAP1 POP JUMP JUMPDEST PUSH1 0x0 PUSH1 0x20 DUP3 ADD SWAP1 POP DUP2 DUP2 SUB PUSH1 0x0 DUP4 ADD MSTORE PUSH2 0x1053 DUP2 PUSH2 0x1017 JUMP JUMPDEST SWAP1 POP SWAP2 SWAP1 POP JUMP JUMPDEST PUSH32 0x4E6F20626F756E747920666F756E640000000000000000000000000000000000 PUSH1 0x0 DUP3 ADD MSTORE POP JUMP JUMPDEST PUSH1 0x0 PUSH2 0x1090 PUSH1 0xF DUP4 PUSH2 0xCF6 JUMP JUMPDEST SWAP2 POP PUSH2 0x109B DUP3 PUSH2 0x105A JUMP JUMPDEST PUSH1 0x20 DUP3 ADD SWAP1 POP SWAP2 SWAP1 POP JUMP JUMPDEST PUSH1 0x0 PUSH1 0x20 DUP3 ADD SWAP1 POP DUP2 DUP2 SUB PUSH1 0x0 DUP4 ADD MSTORE PUSH2 0x10BF DUP2 PUSH2 0x1083 JUMP JUMPDEST SWAP1 POP SWAP2 SWAP1 POP JUMP JUMPDEST PUSH32 0x426F756E747920616C72656164792072656C6561736564000000000000000000 PUSH1 0x0 DUP3 ADD MSTORE POP JUMP JUMPDEST PUSH1 0x0 PUSH2 0x10FC PUSH1 0x17 DUP4 PUSH2 0xCF6 JUMP JUMPDEST SWAP2 POP PUSH2 0x1107 DUP3 PUSH2 0x10C6 JUMP JUMPDEST PUSH1 0x20 DUP3 ADD SWAP1 POP SWAP2 SWAP1 POP JUMP JUMPDEST PUSH1 0x0 PUSH1 0x20 DUP3 ADD SWAP1 POP DUP2 DUP2 SUB PUSH1 0x0 DUP4 ADD MSTORE PUSH2 0x112B DUP2 PUSH2 0x10EF JUMP JUMPDEST SWAP1 POP SWAP2 SWAP1 POP JUMP JUMPDEST PUSH32 0x5472616E73666572206661696C65640000000000000000000000000000000000 PUSH1 0x0 DUP3 ADD MSTORE POP JUMP JUMPDEST PUSH1 0x0 PUSH2 0x1168 PUSH1 0xF DUP4 PUSH2 0xCF6 JUMP JUMPDEST SWAP2 POP PUSH2 0x1173 DUP3 PUSH2 0x1132 JUMP JUMPDEST PUSH1 0x20 DUP3 ADD SWAP1 POP SWAP2 SWAP1 POP JUMP JUMPDEST PUSH1 0x0 PUSH1 0x20 DUP3 ADD SWAP1 POP DUP2 DUP2 SUB PUSH1 0x0 DUP4 ADD MSTORE PUSH2 0x1197 DUP2 PUSH2 0x115B JUMP JUMPDEST SWAP1 POP SWAP2 SWAP1 POP JUMP INVALID LOG2 PUSH5 0x6970667358 0x22 SLT KECCAK256 MSIZE DUP11 RETURNDATACOPY 0xE2 GASPRICE 0xAA SWAP16 0x2B BALANCE 0xEF 0x49 DUP9 PUSH30 0xF040AFD1773F20B30A8964A8699591D41C025264736F6C63430008140033 "},"methodIdentifiers":{"bounties(string)":"3cbef373","owner()":"8da5cb5b","payFee(string)":"b23bf443","payForQuestion(string)":"f3028ccd","protocolFee()":"b0e21e8a","releaseBounty(string,address)":"f414ea88","setProtocolFee(uint256)":"787dce3d","withdrawFees()":"476343ee"}}}}}