{
  "_format": "hh-sol-artifact-1",
  "contractName": "ChainOverflowVault",
  "sourceName": "contracts/ChainOverflowVault.sol",
  "abi": [
    {
      "inputs": [],
      "stateMutability": "nonpayable",
      "type": "constructor"
    },
    {
      "inputs": [
        {
          "internalType": "address",
          "name": "target",
          "type": "address"
        }
      ],
      "name": "AddressEmptyCode",
      "type": "error"
    },
    {
      "inputs": [
        {
          "internalType": "address",
          "name": "implementation",
          "type": "address"
        }
      ],
      "name": "ERC1967InvalidImplementation",
      "type": "error"
    },
    {
      "inputs": [],
      "name": "ERC1967NonPayable",
      "type": "error"
    },
    {
      "inputs": [],
      "name": "FailedCall",
      "type": "error"
    },
    {
      "inputs": [],
      "name": "InvalidInitialization",
      "type": "error"
    },
    {
      "inputs": [],
      "name": "NotInitializing",
      "type": "error"
    },
    {
      "inputs": [
        {
          "internalType": "address",
          "name": "owner",
          "type": "address"
        }
      ],
      "name": "OwnableInvalidOwner",
      "type": "error"
    },
    {
      "inputs": [
        {
          "internalType": "address",
          "name": "account",
          "type": "address"
        }
      ],
      "name": "OwnableUnauthorizedAccount",
      "type": "error"
    },
    {
      "inputs": [],
      "name": "UUPSUnauthorizedCallContext",
      "type": "error"
    },
    {
      "inputs": [
        {
          "internalType": "bytes32",
          "name": "slot",
          "type": "bytes32"
        }
      ],
      "name": "UUPSUnsupportedProxiableUUID",
      "type": "error"
    },
    {
      "anonymous": false,
      "inputs": [
        {
          "indexed": true,
          "internalType": "string",
          "name": "questionId",
          "type": "string"
        },
        {
          "indexed": true,
          "internalType": "address",
          "name": "winner",
          "type": "address"
        },
        {
          "indexed": false,
          "internalType": "uint256",
          "name": "amount",
          "type": "uint256"
        }
      ],
      "name": "BountyReleased",
      "type": "event"
    },
    {
      "anonymous": false,
      "inputs": [
        {
          "indexed": false,
          "internalType": "uint64",
          "name": "version",
          "type": "uint64"
        }
      ],
      "name": "Initialized",
      "type": "event"
    },
    {
      "anonymous": false,
      "inputs": [
        {
          "indexed": true,
          "internalType": "address",
          "name": "previousOwner",
          "type": "address"
        },
        {
          "indexed": true,
          "internalType": "address",
          "name": "newOwner",
          "type": "address"
        }
      ],
      "name": "OwnershipTransferred",
      "type": "event"
    },
    {
      "anonymous": false,
      "inputs": [
        {
          "indexed": true,
          "internalType": "address",
          "name": "payer",
          "type": "address"
        },
        {
          "indexed": false,
          "internalType": "string",
          "name": "resourceId",
          "type": "string"
        },
        {
          "indexed": false,
          "internalType": "uint256",
          "name": "amount",
          "type": "uint256"
        }
      ],
      "name": "PaymentReceived",
      "type": "event"
    },
    {
      "anonymous": false,
      "inputs": [
        {
          "indexed": true,
          "internalType": "address",
          "name": "implementation",
          "type": "address"
        }
      ],
      "name": "Upgraded",
      "type": "event"
    },
    {
      "inputs": [],
      "name": "UPGRADE_INTERFACE_VERSION",
      "outputs": [
        {
          "internalType": "string",
          "name": "",
          "type": "string"
        }
      ],
      "stateMutability": "view",
      "type": "function"
    },
    {
      "inputs": [
        {
          "internalType": "string",
          "name": "",
          "type": "string"
        }
      ],
      "name": "bounties",
      "outputs": [
        {
          "internalType": "uint256",
          "name": "amount",
          "type": "uint256"
        },
        {
          "internalType": "address",
          "name": "asker",
          "type": "address"
        },
        {
          "internalType": "bool",
          "name": "released",
          "type": "bool"
        }
      ],
      "stateMutability": "view",
      "type": "function"
    },
    {
      "inputs": [],
      "name": "initialize",
      "outputs": [],
      "stateMutability": "nonpayable",
      "type": "function"
    },
    {
      "inputs": [],
      "name": "owner",
      "outputs": [
        {
          "internalType": "address",
          "name": "",
          "type": "address"
        }
      ],
      "stateMutability": "view",
      "type": "function"
    },
    {
      "inputs": [
        {
          "internalType": "string",
          "name": "resourceId",
          "type": "string"
        }
      ],
      "name": "payFee",
      "outputs": [],
      "stateMutability": "payable",
      "type": "function"
    },
    {
      "inputs": [
        {
          "internalType": "string",
          "name": "questionId",
          "type": "string"
        }
      ],
      "name": "payForQuestion",
      "outputs": [],
      "stateMutability": "payable",
      "type": "function"
    },
    {
      "inputs": [],
      "name": "protocolFee",
      "outputs": [
        {
          "internalType": "uint256",
          "name": "",
          "type": "uint256"
        }
      ],
      "stateMutability": "view",
      "type": "function"
    },
    {
      "inputs": [],
      "name": "proxiableUUID",
      "outputs": [
        {
          "internalType": "bytes32",
          "name": "",
          "type": "bytes32"
        }
      ],
      "stateMutability": "view",
      "type": "function"
    },
    {
      "inputs": [
        {
          "internalType": "string",
          "name": "questionId",
          "type": "string"
        },
        {
          "internalType": "address payable",
          "name": "winner",
          "type": "address"
        }
      ],
      "name": "releaseBounty",
      "outputs": [],
      "stateMutability": "nonpayable",
      "type": "function"
    },
    {
      "inputs": [],
      "name": "renounceOwnership",
      "outputs": [],
      "stateMutability": "nonpayable",
      "type": "function"
    },
    {
      "inputs": [
        {
          "internalType": "uint256",
          "name": "_newFee",
          "type": "uint256"
        }
      ],
      "name": "setProtocolFee",
      "outputs": [],
      "stateMutability": "nonpayable",
      "type": "function"
    },
    {
      "inputs": [
        {
          "internalType": "address",
          "name": "newOwner",
          "type": "address"
        }
      ],
      "name": "transferOwnership",
      "outputs": [],
      "stateMutability": "nonpayable",
      "type": "function"
    },
    {
      "inputs": [
        {
          "internalType": "address",
          "name": "newImplementation",
          "type": "address"
        },
        {
          "internalType": "bytes",
          "name": "data",
          "type": "bytes"
        }
      ],
      "name": "upgradeToAndCall",
      "outputs": [],
      "stateMutability": "payable",
      "type": "function"
    },
    {
      "inputs": [],
      "name": "withdrawFees",
      "outputs": [],
      "stateMutability": "nonpayable",
      "type": "function"
    },
    {
      "stateMutability": "payable",
      "type": "receive"
    }
  ],
  "bytecode": "0x60a06040523073ffffffffffffffffffffffffffffffffffffffff1660809073ffffffffffffffffffffffffffffffffffffffff168152503480156200004457600080fd5b50620000556200005b60201b60201c565b620001ee565b60006200006d6200016560201b60201c565b90508060000160089054906101000a900460ff1615620000b9576040517ff92ee8a900000000000000000000000000000000000000000000000000000000815260040160405180910390fd5b67ffffffffffffffff80168160000160009054906101000a900467ffffffffffffffff1667ffffffffffffffff1614620001625767ffffffffffffffff8160000160006101000a81548167ffffffffffffffff021916908367ffffffffffffffff1602179055507fc7f505b2f371ae2175ee4913f4499e1f2633a7b5936321eed1cdaeb6115181d267ffffffffffffffff604051620001599190620001d1565b60405180910390a15b50565b600080620001786200018160201b60201c565b90508091505090565b60007ff0c57e16840df040f15088dc2f81fe391c3923bec73e23a9662efc9c229c6a0060001b905090565b600067ffffffffffffffff82169050919050565b620001cb81620001ac565b82525050565b6000602082019050620001e86000830184620001c0565b92915050565b608051611f2c6200021860003960008181610c6201528181610cb70152610e720152611f2c6000f3fe6080604052600436106100e15760003560e01c80638da5cb5b1161007f578063b23bf44311610059578063b23bf44314610262578063f2fde38b1461027e578063f3028ccd146102a7578063f414ea88146102c3576100e8565b80638da5cb5b146101e1578063ad3cb1cc1461020c578063b0e21e8a14610237576100e8565b806352d1902d116100bb57806352d1902d1461015f578063715018a61461018a578063787dce3d146101a15780638129fc1c146101ca576100e8565b80633cbef373146100ed578063476343ee1461012c5780634f1ef28614610143576100e8565b366100e857005b600080fd5b3480156100f957600080fd5b50610114600480360381019061010f91906115d0565b6102ec565b6040516101239392919061168e565b60405180910390f35b34801561013857600080fd5b50610141610359565b005b61015d60048036038101906101589190611792565b61041d565b005b34801561016b57600080fd5b5061017461043c565b6040516101819190611807565b60405180910390f35b34801561019657600080fd5b5061019f61046f565b005b3480156101ad57600080fd5b506101c860048036038101906101c3919061184e565b610483565b005b3480156101d657600080fd5b506101df610495565b005b3480156101ed57600080fd5b506101f6610638565b604051610203919061187b565b60405180910390f35b34801561021857600080fd5b50610221610670565b60405161022e9190611915565b60405180910390f35b34801561024357600080fd5b5061024c6106a9565b6040516102599190611937565b60405180910390f35b61027c600480360381019061027791906115d0565b6106af565b005b34801561028a57600080fd5b506102a560048036038101906102a09190611952565b610747565b005b6102c160048036038101906102bc91906115d0565b6107cd565b005b3480156102cf57600080fd5b506102ea60048036038101906102e591906119bd565b6109d9565b005b6001818051602081018201805184825260208301602085012081835280955050505050506000915090508060000154908060010160009054906101000a900473ffffffffffffffffffffffffffffffffffffffff16908060010160149054906101000a900460ff16905083565b610361610bd9565b60004790506000610370610638565b73ffffffffffffffffffffffffffffffffffffffff168260405161039390611a4a565b60006040518083038185875af1925050503d80600081146103d0576040519150601f19603f3d011682016040523d82523d6000602084013e6103d5565b606091505b5050905080610419576040517f08c379a000000000000000000000000000000000000000000000000000000000815260040161041090611aab565b60405180910390fd5b5050565b610425610c60565b61042e82610d46565b6104388282610d51565b5050565b6000610446610e70565b7f360894a13ba1a3210667c828492db98dca3e2076cc3735a920a3ca505d382bbc60001b905090565b610477610bd9565b6104816000610ef7565b565b61048b610bd9565b8060008190555050565b600061049f610fce565b905060008160000160089054906101000a900460ff1615905060008260000160009054906101000a900467ffffffffffffffff1690506000808267ffffffffffffffff161480156104ed5750825b9050600060018367ffffffffffffffff16148015610522575060003073ffffffffffffffffffffffffffffffffffffffff163b145b905081158015610530575080155b15610567576040517ff92ee8a900000000000000000000000000000000000000000000000000000000815260040160405180910390fd5b60018560000160006101000a81548167ffffffffffffffff021916908367ffffffffffffffff16021790555083156105b75760018560000160086101000a81548160ff0219169083151502179055505b6105c033610fe2565b6105c8610ff6565b655af3107a400060008190555083156106315760008560000160086101000a81548160ff0219169083151502179055507fc7f505b2f371ae2175ee4913f4499e1f2633a7b5936321eed1cdaeb6115181d260016040516106289190611b24565b60405180910390a15b5050505050565b600080610643611000565b90508060000160009054906101000a900473ffffffffffffffffffffffffffffffffffffffff1691505090565b6040518060400160405280600581526020017f352e302e3000000000000000000000000000000000000000000000000000000081525081565b60005481565b6000543410156106f4576040517f08c379a00000000000000000000000000000000000000000000000000000000081526004016106eb90611b8b565b60405180910390fd5b3373ffffffffffffffffffffffffffffffffffffffff167f2333e159bfab9e5471f0b05de3eb962fc027bedccc2b553ae9068c58cdeb0ef6823460405161073c929190611bab565b60405180910390a250565b61074f610bd9565b600073ffffffffffffffffffffffffffffffffffffffff168173ffffffffffffffffffffffffffffffffffffffff16036107c15760006040517f1e4fbdf70000000000000000000000000000000000000000000000000000000081526004016107b8919061187b565b60405180910390fd5b6107ca81610ef7565b50565b60003411610810576040517f08c379a000000000000000000000000000000000000000000000000000000000815260040161080790611c27565b60405180910390fd5b600073ffffffffffffffffffffffffffffffffffffffff166001826040516108389190611c83565b908152602001604051809103902060010160009054906101000a900473ffffffffffffffffffffffffffffffffffffffff1673ffffffffffffffffffffffffffffffffffffffff16146108c0576040517f08c379a00000000000000000000000000000000000000000000000000000000081526004016108b790611ce6565b60405180910390fd5b60405180606001604052803481526020013373ffffffffffffffffffffffffffffffffffffffff168152602001600015158152506001826040516109049190611c83565b90815260200160405180910390206000820151816000015560208201518160010160006101000a81548173ffffffffffffffffffffffffffffffffffffffff021916908373ffffffffffffffffffffffffffffffffffffffff16021790555060408201518160010160146101000a81548160ff0219169083151502179055509050503373ffffffffffffffffffffffffffffffffffffffff167f2333e159bfab9e5471f0b05de3eb962fc027bedccc2b553ae9068c58cdeb0ef682346040516109ce929190611bab565b60405180910390a250565b6109e1610bd9565b60006001836040516109f39190611c83565b908152602001604051809103902090506000816000015411610a4a576040517f08c379a0000000000000000000000000000000000000000000000000000000008152600401610a4190611d52565b60405180910390fd5b8060010160149054906101000a900460ff1615610a9c576040517f08c379a0000000000000000000000000000000000000000000000000000000008152600401610a9390611dbe565b60405180910390fd5b60018160010160146101000a81548160ff02191690831515021790555060008160000154905060008373ffffffffffffffffffffffffffffffffffffffff1682604051610ae890611a4a565b60006040518083038185875af1925050503d8060008114610b25576040519150601f19603f3d011682016040523d82523d6000602084013e610b2a565b606091505b5050905080610b6e576040517f08c379a0000000000000000000000000000000000000000000000000000000008152600401610b6590611e2a565b60405180910390fd5b8373ffffffffffffffffffffffffffffffffffffffff1685604051610b939190611c83565b60405180910390207f5b80e074886f3bfe4a3ba58fc5c49211f135207e842ac020d8a9e1cc6312516b84604051610bca9190611937565b60405180910390a35050505050565b610be1611028565b73ffffffffffffffffffffffffffffffffffffffff16610bff610638565b73ffffffffffffffffffffffffffffffffffffffff1614610c5e57610c22611028565b6040517f118cdaa7000000000000000000000000000000000000000000000000000000008152600401610c55919061187b565b60405180910390fd5b565b7f000000000000000000000000000000000000000000000000000000000000000073ffffffffffffffffffffffffffffffffffffffff163073ffffffffffffffffffffffffffffffffffffffff161480610d0d57507f000000000000000000000000000000000000000000000000000000000000000073ffffffffffffffffffffffffffffffffffffffff16610cf4611030565b73ffffffffffffffffffffffffffffffffffffffff1614155b15610d44576040517fe07c8dba00000000000000000000000000000000000000000000000000000000815260040160405180910390fd5b565b610d4e610bd9565b50565b8173ffffffffffffffffffffffffffffffffffffffff166352d1902d6040518163ffffffff1660e01b8152600401602060405180830381865afa925050508015610db957506040513d601f19601f82011682018060405250810190610db69190611e76565b60015b610dfa57816040517f4c9c8ce3000000000000000000000000000000000000000000000000000000008152600401610df1919061187b565b60405180910390fd5b7f360894a13ba1a3210667c828492db98dca3e2076cc3735a920a3ca505d382bbc60001b8114610e6157806040517faa1d49a4000000000000000000000000000000000000000000000000000000008152600401610e589190611807565b60405180910390fd5b610e6b8383611087565b505050565b7f000000000000000000000000000000000000000000000000000000000000000073ffffffffffffffffffffffffffffffffffffffff163073ffffffffffffffffffffffffffffffffffffffff1614610ef5576040517fe07c8dba00000000000000000000000000000000000000000000000000000000815260040160405180910390fd5b565b6000610f01611000565b905060008160000160009054906101000a900473ffffffffffffffffffffffffffffffffffffffff169050828260000160006101000a81548173ffffffffffffffffffffffffffffffffffffffff021916908373ffffffffffffffffffffffffffffffffffffffff1602179055508273ffffffffffffffffffffffffffffffffffffffff168173ffffffffffffffffffffffffffffffffffffffff167f8be0079c531659141344cd1fd0a4f28419497f9722a3daafe3b4186f6b6457e060405160405180910390a3505050565b600080610fd96110fa565b90508091505090565b610fea611125565b610ff381611165565b50565b610ffe611125565b565b60007f9016d09d72d40fdae2fd8ceac6b6234c7706214fd39c1cd1e609a0528c199300905090565b600033905090565b600061105e7f360894a13ba1a3210667c828492db98dca3e2076cc3735a920a3ca505d382bbc60001b6111eb565b60000160009054906101000a900473ffffffffffffffffffffffffffffffffffffffff16905090565b611090826111f5565b8173ffffffffffffffffffffffffffffffffffffffff167fbc7cd75a20ee27fd9adebab32041f755214dbc6bffa90cc0225b39da2e5c2d3b60405160405180910390a26000815111156110ed576110e782826112c2565b506110f6565b6110f5611346565b5b5050565b60007ff0c57e16840df040f15088dc2f81fe391c3923bec73e23a9662efc9c229c6a0060001b905090565b61112d611383565b611163576040517fd7e6bcf800000000000000000000000000000000000000000000000000000000815260040160405180910390fd5b565b61116d611125565b600073ffffffffffffffffffffffffffffffffffffffff168173ffffffffffffffffffffffffffffffffffffffff16036111df5760006040517f1e4fbdf70000000000000000000000000000000000000000000000000000000081526004016111d6919061187b565b60405180910390fd5b6111e881610ef7565b50565b6000819050919050565b60008173ffffffffffffffffffffffffffffffffffffffff163b0361125157806040517f4c9c8ce3000000000000000000000000000000000000000000000000000000008152600401611248919061187b565b60405180910390fd5b8061127e7f360894a13ba1a3210667c828492db98dca3e2076cc3735a920a3ca505d382bbc60001b6111eb565b60000160006101000a81548173ffffffffffffffffffffffffffffffffffffffff021916908373ffffffffffffffffffffffffffffffffffffffff16021790555050565b60606000808473ffffffffffffffffffffffffffffffffffffffff16846040516112ec9190611edf565b600060405180830381855af49150503d8060008114611327576040519150601f19603f3d011682016040523d82523d6000602084013e61132c565b606091505b509150915061133c8583836113a3565b9250505092915050565b6000341115611381576040517fb398979f00000000000000000000000000000000000000000000000000000000815260040160405180910390fd5b565b600061138d610fce565b60000160089054906101000a900460ff16905090565b6060826113b8576113b382611432565b61142a565b600082511480156113e0575060008473ffffffffffffffffffffffffffffffffffffffff163b145b1561142257836040517f9996b315000000000000000000000000000000000000000000000000000000008152600401611419919061187b565b60405180910390fd5b81905061142b565b5b9392505050565b60008151111561144457805160208201fd5b6040517fd6bda27500000000000000000000000000000000000000000000000000000000815260040160405180910390fd5b6000604051905090565b600080fd5b600080fd5b600080fd5b600080fd5b6000601f19601f8301169050919050565b7f4e487b7100000000000000000000000000000000000000000000000000000000600052604160045260246000fd5b6114dd82611494565b810181811067ffffffffffffffff821117156114fc576114fb6114a5565b5b80604052505050565b600061150f611476565b905061151b82826114d4565b919050565b600067ffffffffffffffff82111561153b5761153a6114a5565b5b61154482611494565b9050602081019050919050565b82818337600083830152505050565b600061157361156e84611520565b611505565b90508281526020810184848401111561158f5761158e61148f565b5b61159a848285611551565b509392505050565b600082601f8301126115b7576115b661148a565b5b81356115c7848260208601611560565b91505092915050565b6000602082840312156115e6576115e5611480565b5b600082013567ffffffffffffffff81111561160457611603611485565b5b611610848285016115a2565b91505092915050565b6000819050919050565b61162c81611619565b82525050565b600073ffffffffffffffffffffffffffffffffffffffff82169050919050565b600061165d82611632565b9050919050565b61166d81611652565b82525050565b60008115159050919050565b61168881611673565b82525050565b60006060820190506116a36000830186611623565b6116b06020830185611664565b6116bd604083018461167f565b949350505050565b6116ce81611652565b81146116d957600080fd5b50565b6000813590506116eb816116c5565b92915050565b600067ffffffffffffffff82111561170c5761170b6114a5565b5b61171582611494565b9050602081019050919050565b6000611735611730846116f1565b611505565b9050828152602081018484840111156117515761175061148f565b5b61175c848285611551565b509392505050565b600082601f8301126117795761177861148a565b5b8135611789848260208601611722565b91505092915050565b600080604083850312156117a9576117a8611480565b5b60006117b7858286016116dc565b925050602083013567ffffffffffffffff8111156117d8576117d7611485565b5b6117e485828601611764565b9150509250929050565b6000819050919050565b611801816117ee565b82525050565b600060208201905061181c60008301846117f8565b92915050565b61182b81611619565b811461183657600080fd5b50565b60008135905061184881611822565b92915050565b60006020828403121561186457611863611480565b5b600061187284828501611839565b91505092915050565b60006020820190506118906000830184611664565b92915050565b600081519050919050565b600082825260208201905092915050565b60005b838110156118d05780820151818401526020810190506118b5565b60008484015250505050565b60006118e782611896565b6118f181856118a1565b93506119018185602086016118b2565b61190a81611494565b840191505092915050565b6000602082019050818103600083015261192f81846118dc565b905092915050565b600060208201905061194c6000830184611623565b92915050565b60006020828403121561196857611967611480565b5b6000611976848285016116dc565b91505092915050565b600061198a82611632565b9050919050565b61199a8161197f565b81146119a557600080fd5b50565b6000813590506119b781611991565b92915050565b600080604083850312156119d4576119d3611480565b5b600083013567ffffffffffffffff8111156119f2576119f1611485565b5b6119fe858286016115a2565b9250506020611a0f858286016119a8565b9150509250929050565b600081905092915050565b50565b6000611a34600083611a19565b9150611a3f82611a24565b600082019050919050565b6000611a5582611a27565b9150819050919050565b7f5769746864726177616c206661696c6564000000000000000000000000000000600082015250565b6000611a956011836118a1565b9150611aa082611a5f565b602082019050919050565b60006020820190508181036000830152611ac481611a88565b9050919050565b6000819050919050565b600067ffffffffffffffff82169050919050565b6000819050919050565b6000611b0e611b09611b0484611acb565b611ae9565b611ad5565b9050919050565b611b1e81611af3565b82525050565b6000602082019050611b396000830184611b15565b92915050565b7f496e73756666696369656e742066656500000000000000000000000000000000600082015250565b6000611b756010836118a1565b9150611b8082611b3f565b602082019050919050565b60006020820190508181036000830152611ba481611b68565b9050919050565b60006040820190508181036000830152611bc581856118dc565b9050611bd46020830184611623565b9392505050565b7f5061796d656e74206d7573742062652067726561746572207468616e20300000600082015250565b6000611c11601e836118a1565b9150611c1c82611bdb565b602082019050919050565b60006020820190508181036000830152611c4081611c04565b9050919050565b600081905092915050565b6000611c5d82611896565b611c678185611c47565b9350611c778185602086016118b2565b80840191505092915050565b6000611c8f8284611c52565b915081905092915050565b7f5175657374696f6e20494420616c726561647920657869737473000000000000600082015250565b6000611cd0601a836118a1565b9150611cdb82611c9a565b602082019050919050565b60006020820190508181036000830152611cff81611cc3565b9050919050565b7f4e6f20626f756e747920666f756e640000000000000000000000000000000000600082015250565b6000611d3c600f836118a1565b9150611d4782611d06565b602082019050919050565b60006020820190508181036000830152611d6b81611d2f565b9050919050565b7f426f756e747920616c72656164792072656c6561736564000000000000000000600082015250565b6000611da86017836118a1565b9150611db382611d72565b602082019050919050565b60006020820190508181036000830152611dd781611d9b565b9050919050565b7f5472616e73666572206661696c65640000000000000000000000000000000000600082015250565b6000611e14600f836118a1565b9150611e1f82611dde565b602082019050919050565b60006020820190508181036000830152611e4381611e07565b9050919050565b611e53816117ee565b8114611e5e57600080fd5b50565b600081519050611e7081611e4a565b92915050565b600060208284031215611e8c57611e8b611480565b5b6000611e9a84828501611e61565b91505092915050565b600081519050919050565b6000611eb982611ea3565b611ec38185611a19565b9350611ed38185602086016118b2565b80840191505092915050565b6000611eeb8284611eae565b91508190509291505056fea264697066735822122071bdf85ecc082b4531ebe16c8239136752ef061876e08bdb7047c2f47b87f57064736f6c63430008160033",
  "linkReferences": {},
  "deployedLinkReferences": {}
}