{
  "_format": "hh-sol-artifact-1",
  "contractName": "ChainOverflowVault",
  "sourceName": "contracts/ChainOverflowVault.sol",
  "abi": [
    {
      "inputs": [],
      "stateMutability": "nonpayable",
      "type": "constructor"
    },
    {
      "anonymous": false,
      "inputs": [
        {
          "indexed": true,
          "internalType": "string",
          "name": "questionId",
          "type": "string"
        },
        {
          "indexed": true,
          "internalType": "address",
          "name": "winner",
          "type": "address"
        },
        {
          "indexed": false,
          "internalType": "uint256",
          "name": "amount",
          "type": "uint256"
        }
      ],
      "name": "BountyReleased",
      "type": "event"
    },
    {
      "anonymous": false,
      "inputs": [
        {
          "indexed": true,
          "internalType": "address",
          "name": "payer",
          "type": "address"
        },
        {
          "indexed": false,
          "internalType": "string",
          "name": "resourceId",
          "type": "string"
        },
        {
          "indexed": false,
          "internalType": "uint256",
          "name": "amount",
          "type": "uint256"
        }
      ],
      "name": "PaymentReceived",
      "type": "event"
    },
    {
      "inputs": [
        {
          "internalType": "string",
          "name": "",
          "type": "string"
        }
      ],
      "name": "bounties",
      "outputs": [
        {
          "internalType": "uint256",
          "name": "amount",
          "type": "uint256"
        },
        {
          "internalType": "address",
          "name": "asker",
          "type": "address"
        },
        {
          "internalType": "bool",
          "name": "released",
          "type": "bool"
        }
      ],
      "stateMutability": "view",
      "type": "function"
    },
    {
      "inputs": [],
      "name": "owner",
      "outputs": [
        {
          "internalType": "address",
          "name": "",
          "type": "address"
        }
      ],
      "stateMutability": "view",
      "type": "function"
    },
    {
      "inputs": [
        {
          "internalType": "string",
          "name": "resourceId",
          "type": "string"
        }
      ],
      "name": "payFee",
      "outputs": [],
      "stateMutability": "payable",
      "type": "function"
    },
    {
      "inputs": [
        {
          "internalType": "string",
          "name": "questionId",
          "type": "string"
        }
      ],
      "name": "payForQuestion",
      "outputs": [],
      "stateMutability": "payable",
      "type": "function"
    },
    {
      "inputs": [],
      "name": "protocolFee",
      "outputs": [
        {
          "internalType": "uint256",
          "name": "",
          "type": "uint256"
        }
      ],
      "stateMutability": "view",
      "type": "function"
    },
    {
      "inputs": [
        {
          "internalType": "string",
          "name": "questionId",
          "type": "string"
        },
        {
          "internalType": "address payable",
          "name": "winner",
          "type": "address"
        }
      ],
      "name": "releaseBounty",
      "outputs": [],
      "stateMutability": "nonpayable",
      "type": "function"
    },
    {
      "inputs": [
        {
          "internalType": "uint256",
          "name": "_newFee",
          "type": "uint256"
        }
      ],
      "name": "setProtocolFee",
      "outputs": [],
      "stateMutability": "nonpayable",
      "type": "function"
    },
    {
      "inputs": [],
      "name": "withdrawFees",
      "outputs": [],
      "stateMutability": "nonpayable",
      "type": "function"
    },
    {
      "stateMutability": "payable",
      "type": "receive"
    }
  ],
  "bytecode": "0x6080604052655af3107a400060015534801561001a57600080fd5b50336000806101000a81548173ffffffffffffffffffffffffffffffffffffffff021916908373ffffffffffffffffffffffffffffffffffffffff1602179055506111d48061006a6000396000f3fe60806040526004361061007f5760003560e01c8063b0e21e8a1161004e578063b0e21e8a14610135578063b23bf44314610160578063f3028ccd1461017c578063f414ea881461019857610086565b80633cbef3731461008b578063476343ee146100ca578063787dce3d146100e15780638da5cb5b1461010a57610086565b3661008657005b600080fd5b34801561009757600080fd5b506100b260048036038101906100ad9190610ad8565b6101c1565b6040516100c193929190610b96565b60405180910390f35b3480156100d657600080fd5b506100df61022e565b005b3480156100ed57600080fd5b5061010860048036038101906101039190610bf9565b610392565b005b34801561011657600080fd5b5061011f61042a565b60405161012c9190610c26565b60405180910390f35b34801561014157600080fd5b5061014a61044e565b6040516101579190610c41565b60405180910390f35b61017a60048036038101906101759190610ad8565b610454565b005b61019660048036038101906101919190610ad8565b6104ec565b005b3480156101a457600080fd5b506101bf60048036038101906101ba9190610c9a565b6106f8565b005b6002818051602081018201805184825260208301602085012081835280955050505050506000915090508060000154908060010160009054906101000a900473ffffffffffffffffffffffffffffffffffffffff16908060010160149054906101000a900460ff16905083565b60008054906101000a900473ffffffffffffffffffffffffffffffffffffffff1673ffffffffffffffffffffffffffffffffffffffff163373ffffffffffffffffffffffffffffffffffffffff16146102bc576040517f08c379a00000000000000000000000000000000000000000000000000000000081526004016102b390610d53565b60405180910390fd5b600047905060008060009054906101000a900473ffffffffffffffffffffffffffffffffffffffff1673ffffffffffffffffffffffffffffffffffffffff168260405161030890610da4565b60006040518083038185875af1925050503d8060008114610345576040519150601f19603f3d011682016040523d82523d6000602084013e61034a565b606091505b505090508061038e576040517f08c379a000000000000000000000000000000000000000000000000000000000815260040161038590610e05565b60405180910390fd5b5050565b60008054906101000a900473ffffffffffffffffffffffffffffffffffffffff1673ffffffffffffffffffffffffffffffffffffffff163373ffffffffffffffffffffffffffffffffffffffff1614610420576040517f08c379a000000000000000000000000000000000000000000000000000000000815260040161041790610d53565b60405180910390fd5b8060018190555050565b60008054906101000a900473ffffffffffffffffffffffffffffffffffffffff1681565b60015481565b600154341015610499576040517f08c379a000000000000000000000000000000000000000000000000000000000815260040161049090610e71565b60405180910390fd5b3373ffffffffffffffffffffffffffffffffffffffff167f2333e159bfab9e5471f0b05de3eb962fc027bedccc2b553ae9068c58cdeb0ef682346040516104e1929190610eff565b60405180910390a250565b6000341161052f576040517f08c379a000000000000000000000000000000000000000000000000000000000815260040161052690610f7b565b60405180910390fd5b600073ffffffffffffffffffffffffffffffffffffffff166002826040516105579190610fd7565b908152602001604051809103902060010160009054906101000a900473ffffffffffffffffffffffffffffffffffffffff1673ffffffffffffffffffffffffffffffffffffffff16146105df576040517f08c379a00000000000000000000000000000000000000000000000000000000081526004016105d69061103a565b60405180910390fd5b60405180606001604052803481526020013373ffffffffffffffffffffffffffffffffffffffff168152602001600015158152506002826040516106239190610fd7565b90815260200160405180910390206000820151816000015560208201518160010160006101000a81548173ffffffffffffffffffffffffffffffffffffffff021916908373ffffffffffffffffffffffffffffffffffffffff16021790555060408201518160010160146101000a81548160ff0219169083151502179055509050503373ffffffffffffffffffffffffffffffffffffffff167f2333e159bfab9e5471f0b05de3eb962fc027bedccc2b553ae9068c58cdeb0ef682346040516106ed929190610eff565b60405180910390a250565b60008054906101000a900473ffffffffffffffffffffffffffffffffffffffff1673ffffffffffffffffffffffffffffffffffffffff163373ffffffffffffffffffffffffffffffffffffffff1614610786576040517f08c379a000000000000000000000000000000000000000000000000000000000815260040161077d90610d53565b60405180910390fd5b60006002836040516107989190610fd7565b9081526020016040518091039020905060008160000154116107ef576040517f08c379a00000000000000000000000000000000000000000000000000000000081526004016107e6906110a6565b60405180910390fd5b8060010160149054906101000a900460ff1615610841576040517f08c379a000000000000000000000000000000000000000000000000000000000815260040161083890611112565b60405180910390fd5b60018160010160146101000a81548160ff02191690831515021790555060008160000154905060008373ffffffffffffffffffffffffffffffffffffffff168260405161088d90610da4565b60006040518083038185875af1925050503d80600081146108ca576040519150601f19603f3d011682016040523d82523d6000602084013e6108cf565b606091505b5050905080610913576040517f08c379a000000000000000000000000000000000000000000000000000000000815260040161090a9061117e565b60405180910390fd5b8373ffffffffffffffffffffffffffffffffffffffff16856040516109389190610fd7565b60405180910390207f5b80e074886f3bfe4a3ba58fc5c49211f135207e842ac020d8a9e1cc6312516b8460405161096f9190610c41565b60405180910390a35050505050565b6000604051905090565b600080fd5b600080fd5b600080fd5b600080fd5b6000601f19601f8301169050919050565b7f4e487b7100000000000000000000000000000000000000000000000000000000600052604160045260246000fd5b6109e58261099c565b810181811067ffffffffffffffff82111715610a0457610a036109ad565b5b80604052505050565b6000610a1761097e565b9050610a2382826109dc565b919050565b600067ffffffffffffffff821115610a4357610a426109ad565b5b610a4c8261099c565b9050602081019050919050565b82818337600083830152505050565b6000610a7b610a7684610a28565b610a0d565b905082815260208101848484011115610a9757610a96610997565b5b610aa2848285610a59565b509392505050565b600082601f830112610abf57610abe610992565b5b8135610acf848260208601610a68565b91505092915050565b600060208284031215610aee57610aed610988565b5b600082013567ffffffffffffffff811115610b0c57610b0b61098d565b5b610b1884828501610aaa565b91505092915050565b6000819050919050565b610b3481610b21565b82525050565b600073ffffffffffffffffffffffffffffffffffffffff82169050919050565b6000610b6582610b3a565b9050919050565b610b7581610b5a565b82525050565b60008115159050919050565b610b9081610b7b565b82525050565b6000606082019050610bab6000830186610b2b565b610bb86020830185610b6c565b610bc56040830184610b87565b949350505050565b610bd681610b21565b8114610be157600080fd5b50565b600081359050610bf381610bcd565b92915050565b600060208284031215610c0f57610c0e610988565b5b6000610c1d84828501610be4565b91505092915050565b6000602082019050610c3b6000830184610b6c565b92915050565b6000602082019050610c566000830184610b2b565b92915050565b6000610c6782610b3a565b9050919050565b610c7781610c5c565b8114610c8257600080fd5b50565b600081359050610c9481610c6e565b92915050565b60008060408385031215610cb157610cb0610988565b5b600083013567ffffffffffffffff811115610ccf57610cce61098d565b5b610cdb85828601610aaa565b9250506020610cec85828601610c85565b9150509250929050565b600082825260208201905092915050565b7f4f6e6c79206f776e65722063616e2063616c6c20746869730000000000000000600082015250565b6000610d3d601883610cf6565b9150610d4882610d07565b602082019050919050565b60006020820190508181036000830152610d6c81610d30565b9050919050565b600081905092915050565b50565b6000610d8e600083610d73565b9150610d9982610d7e565b600082019050919050565b6000610daf82610d81565b9150819050919050565b7f5769746864726177616c206661696c6564000000000000000000000000000000600082015250565b6000610def601183610cf6565b9150610dfa82610db9565b602082019050919050565b60006020820190508181036000830152610e1e81610de2565b9050919050565b7f496e73756666696369656e742066656500000000000000000000000000000000600082015250565b6000610e5b601083610cf6565b9150610e6682610e25565b602082019050919050565b60006020820190508181036000830152610e8a81610e4e565b9050919050565b600081519050919050565b60005b83811015610eba578082015181840152602081019050610e9f565b60008484015250505050565b6000610ed182610e91565b610edb8185610cf6565b9350610eeb818560208601610e9c565b610ef48161099c565b840191505092915050565b60006040820190508181036000830152610f198185610ec6565b9050610f286020830184610b2b565b9392505050565b7f5061796d656e74206d7573742062652067726561746572207468616e20300000600082015250565b6000610f65601e83610cf6565b9150610f7082610f2f565b602082019050919050565b60006020820190508181036000830152610f9481610f58565b9050919050565b600081905092915050565b6000610fb182610e91565b610fbb8185610f9b565b9350610fcb818560208601610e9c565b80840191505092915050565b6000610fe38284610fa6565b915081905092915050565b7f5175657374696f6e20494420616c726561647920657869737473000000000000600082015250565b6000611024601a83610cf6565b915061102f82610fee565b602082019050919050565b6000602082019050818103600083015261105381611017565b9050919050565b7f4e6f20626f756e747920666f756e640000000000000000000000000000000000600082015250565b6000611090600f83610cf6565b915061109b8261105a565b602082019050919050565b600060208201905081810360008301526110bf81611083565b9050919050565b7f426f756e747920616c72656164792072656c6561736564000000000000000000600082015250565b60006110fc601783610cf6565b9150611107826110c6565b602082019050919050565b6000602082019050818103600083015261112b816110ef565b9050919050565b7f5472616e73666572206661696c65640000000000000000000000000000000000600082015250565b6000611168600f83610cf6565b915061117382611132565b602082019050919050565b600060208201905081810360008301526111978161115b565b905091905056fea2646970667358221220598a3ee23aaa9f2b31ef49887df040afd1773f20b30a8964a8699591d41c025264736f6c63430008140033",
  "linkReferences": {},
  "deployedLinkReferences": {}
}